{
  "contractName": "LeilaoAsCegas",
  "abi": [
    {
      "inputs": [
        {
          "internalType": "uint256",
          "name": "_duracaoLances",
          "type": "uint256"
        },
        {
          "internalType": "uint256",
          "name": "_duracaoRevelacao",
          "type": "uint256"
        },
        {
          "internalType": "address",
          "name": "_tokenAddress",
          "type": "address"
        }
      ],
      "stateMutability": "nonpayable",
      "type": "constructor"
    },
    {
      "anonymous": false,
      "inputs": [
        {
          "indexed": false,
          "internalType": "string",
          "name": "message",
          "type": "string"
        }
      ],
      "name": "LogMessage",
      "type": "event"
    },
    {
      "inputs": [],
      "name": "beneficiario",
      "outputs": [
        {
          "internalType": "address",
          "name": "",
          "type": "address"
        }
      ],
      "stateMutability": "view",
      "type": "function"
    },
    {
      "inputs": [],
      "name": "fimPeriodoLances",
      "outputs": [
        {
          "internalType": "uint256",
          "name": "",
          "type": "uint256"
        }
      ],
      "stateMutability": "view",
      "type": "function"
    },
    {
      "inputs": [],
      "name": "fimPeriodoRevelacao",
      "outputs": [
        {
          "internalType": "uint256",
          "name": "",
          "type": "uint256"
        }
      ],
      "stateMutability": "view",
      "type": "function"
    },
    {
      "inputs": [
        {
          "internalType": "address",
          "name": "",
          "type": "address"
        }
      ],
      "name": "lances",
      "outputs": [
        {
          "internalType": "bytes32",
          "name": "valorCego",
          "type": "bytes32"
        },
        {
          "internalType": "uint256",
          "name": "valor",
          "type": "uint256"
        },
        {
          "internalType": "bool",
          "name": "revelado",
          "type": "bool"
        }
      ],
      "stateMutability": "view",
      "type": "function"
    },
    {
      "inputs": [],
      "name": "leilaoFinalizado",
      "outputs": [
        {
          "internalType": "bool",
          "name": "",
          "type": "bool"
        }
      ],
      "stateMutability": "view",
      "type": "function"
    },
    {
      "inputs": [],
      "name": "maiorLance",
      "outputs": [
        {
          "internalType": "uint256",
          "name": "",
          "type": "uint256"
        }
      ],
      "stateMutability": "view",
      "type": "function"
    },
    {
      "inputs": [],
      "name": "maiorLicitante",
      "outputs": [
        {
          "internalType": "address",
          "name": "",
          "type": "address"
        }
      ],
      "stateMutability": "view",
      "type": "function"
    },
    {
      "inputs": [],
      "name": "token",
      "outputs": [
        {
          "internalType": "contract IERC20",
          "name": "",
          "type": "address"
        }
      ],
      "stateMutability": "view",
      "type": "function"
    },
    {
      "inputs": [
        {
          "internalType": "bytes32",
          "name": "_valorCego",
          "type": "bytes32"
        }
      ],
      "name": "enviarLance",
      "outputs": [],
      "stateMutability": "nonpayable",
      "type": "function"
    },
    {
      "inputs": [
        {
          "internalType": "uint256",
          "name": "_valor",
          "type": "uint256"
        },
        {
          "internalType": "string",
          "name": "_segredo",
          "type": "string"
        }
      ],
      "name": "revelarLance",
      "outputs": [],
      "stateMutability": "nonpayable",
      "type": "function"
    },
    {
      "inputs": [],
      "name": "finalizarLeilao",
      "outputs": [],
      "stateMutability": "nonpayable",
      "type": "function"
    },
    {
      "inputs": [],
      "name": "mostrarGanhador",
      "outputs": [
        {
          "internalType": "address",
          "name": "",
          "type": "address"
        },
        {
          "internalType": "uint256",
          "name": "",
          "type": "uint256"
        }
      ],
      "stateMutability": "view",
      "type": "function"
    }
  ],
  "bytecode": "0x60806040523480156200001157600080fd5b506040516200196d3803806200196d833981810160405281019062000037919062000190565b336000806101000a81548173ffffffffffffffffffffffffffffffffffffffff021916908373ffffffffffffffffffffffffffffffffffffffff16021790555082426200008591906200021b565b600181905550816001546200009b91906200021b565b60028190555080600360006101000a81548173ffffffffffffffffffffffffffffffffffffffff021916908373ffffffffffffffffffffffffffffffffffffffff16021790555050505062000256565b600080fd5b6000819050919050565b6200010581620000f0565b81146200011157600080fd5b50565b6000815190506200012581620000fa565b92915050565b600073ffffffffffffffffffffffffffffffffffffffff82169050919050565b600062000158826200012b565b9050919050565b6200016a816200014b565b81146200017657600080fd5b50565b6000815190506200018a816200015f565b92915050565b600080600060608486031215620001ac57620001ab620000eb565b5b6000620001bc8682870162000114565b9350506020620001cf8682870162000114565b9250506040620001e28682870162000179565b9150509250925092565b7f4e487b7100000000000000000000000000000000000000000000000000000000600052601160045260246000fd5b60006200022882620000f0565b91506200023583620000f0565b925082820190508082111562000250576200024f620001ec565b5b92915050565b61170780620002666000396000f3fe608060405234801561001057600080fd5b50600436106100b45760003560e01c80639c3df1b9116100715780639c3df1b914610158578063c482063b14610176578063c859795e14610194578063e6e1e6a3146101b0578063e9331114146101e2578063fc0c546a14610200576100b4565b806329e0c347146100b95780632a10098d146100d75780633947152f146100e157806343fd703f146100fd5780634c6d0a0f1461011b57806350334e6c14610139575b600080fd5b6100c161021e565b6040516100ce9190610bc0565b60405180910390f35b6100df610224565b005b6100fb60048036038101906100f69190610d61565b6103d7565b005b6101056108fe565b6040516101129190610dfe565b60405180910390f35b610123610922565b6040516101309190610dfe565b60405180910390f35b610141610948565b60405161014f929190610e19565b60405180910390f35b6101606109c8565b60405161016d9190610e5d565b60405180910390f35b61017e6109db565b60405161018b9190610bc0565b60405180910390f35b6101ae60048036038101906101a99190610eae565b6109e1565b005b6101ca60048036038101906101c59190610f07565b610b44565b6040516101d993929190610f43565b60405180910390f35b6101ea610b7b565b6040516101f79190610bc0565b60405180910390f35b610208610b81565b6040516102159190610fd9565b60405180910390f35b60065481565b600254421015610269576040517f08c379a000000000000000000000000000000000000000000000000000000000815260040161026090611077565b60405180910390fd5b600760009054906101000a900460ff16156102b9576040517f08c379a00000000000000000000000000000000000000000000000000000000081526004016102b0906110e3565b60405180910390fd5b6001600760006101000a81548160ff021916908315150217905550600360009054906101000a900473ffffffffffffffffffffffffffffffffffffffff1673ffffffffffffffffffffffffffffffffffffffff1663a9059cbb60008054906101000a900473ffffffffffffffffffffffffffffffffffffffff166006546040518363ffffffff1660e01b8152600401610353929190610e19565b6020604051808303816000875af1158015610372573d6000803e3d6000fd5b505050506040513d601f19601f82011682018060405250810190610396919061112f565b6103d5576040517f08c379a00000000000000000000000000000000000000000000000000000000081526004016103cc906111ce565b60405180910390fd5b565b60015442101580156103ea575060025442105b610429576040517f08c379a00000000000000000000000000000000000000000000000000000000081526004016104209061123a565b60405180910390fd5b6000600460003373ffffffffffffffffffffffffffffffffffffffff1673ffffffffffffffffffffffffffffffffffffffff16815260200190815260200160002090507f96561394bac381230de4649200e8831afcab1f451881bbade9ef209f6dd30480604051610499906112cc565b60405180910390a182826040516020016104b492919061137e565b6040516020818303038152906040528051906020012081600001541461050f576040517f08c379a0000000000000000000000000000000000000000000000000000000008152600401610506906113f2565b60405180910390fd5b8060020160009054906101000a900460ff1615610561576040517f08c379a00000000000000000000000000000000000000000000000000000000081526004016105589061145e565b60405180910390fd5b82816001018190555060018160020160006101000a81548160ff021916908315150217905550600360009054906101000a900473ffffffffffffffffffffffffffffffffffffffff1673ffffffffffffffffffffffffffffffffffffffff166323b872dd3330866040518463ffffffff1660e01b81526004016105e69392919061147e565b6020604051808303816000875af1158015610605573d6000803e3d6000fd5b505050506040513d601f19601f82011682018060405250810190610629919061112f565b610668576040517f08c379a000000000000000000000000000000000000000000000000000000000815260040161065f90611501565b60405180910390fd5b60065483111561081957600073ffffffffffffffffffffffffffffffffffffffff16600560009054906101000a900473ffffffffffffffffffffffffffffffffffffffff1673ffffffffffffffffffffffffffffffffffffffff16146107cc57600360009054906101000a900473ffffffffffffffffffffffffffffffffffffffff1673ffffffffffffffffffffffffffffffffffffffff1663a9059cbb600560009054906101000a900473ffffffffffffffffffffffffffffffffffffffff166006546040518363ffffffff1660e01b8152600401610749929190610e19565b6020604051808303816000875af1158015610768573d6000803e3d6000fd5b505050506040513d601f19601f8201168201806040525081019061078c919061112f565b6107cb576040517f08c379a00000000000000000000000000000000000000000000000000000000081526004016107c29061156d565b60405180910390fd5b5b33600560006101000a81548173ffffffffffffffffffffffffffffffffffffffff021916908373ffffffffffffffffffffffffffffffffffffffff160217905550826006819055506108f9565b600360009054906101000a900473ffffffffffffffffffffffffffffffffffffffff1673ffffffffffffffffffffffffffffffffffffffff1663a9059cbb33856040518363ffffffff1660e01b8152600401610876929190610e19565b6020604051808303816000875af1158015610895573d6000803e3d6000fd5b505050506040513d601f19601f820116820180604052508101906108b9919061112f565b6108f8576040517f08c379a00000000000000000000000000000000000000000000000000000000081526004016108ef9061156d565b60405180910390fd5b5b505050565b60008054906101000a900473ffffffffffffffffffffffffffffffffffffffff1681565b600560009054906101000a900473ffffffffffffffffffffffffffffffffffffffff1681565b600080600760009054906101000a900460ff1661099a576040517f08c379a0000000000000000000000000000000000000000000000000000000008152600401610991906115d9565b60405180910390fd5b600560009054906101000a900473ffffffffffffffffffffffffffffffffffffffff16600654915091509091565b600760009054906101000a900460ff1681565b60025481565b6001544210610a25576040517f08c379a0000000000000000000000000000000000000000000000000000000008152600401610a1c90611645565b60405180910390fd5b6000801b600460003373ffffffffffffffffffffffffffffffffffffffff1673ffffffffffffffffffffffffffffffffffffffff1681526020019081526020016000206000015414610aac576040517f08c379a0000000000000000000000000000000000000000000000000000000008152600401610aa3906116b1565b60405180910390fd5b60405180606001604052808281526020016000815260200160001515815250600460003373ffffffffffffffffffffffffffffffffffffffff1673ffffffffffffffffffffffffffffffffffffffff168152602001908152602001600020600082015181600001556020820151816001015560408201518160020160006101000a81548160ff02191690831515021790555090505050565b60046020528060005260406000206000915090508060000154908060010154908060020160009054906101000a900460ff16905083565b60015481565b600360009054906101000a900473ffffffffffffffffffffffffffffffffffffffff1681565b6000819050919050565b610bba81610ba7565b82525050565b6000602082019050610bd56000830184610bb1565b92915050565b6000604051905090565b600080fd5b600080fd5b610bf881610ba7565b8114610c0357600080fd5b50565b600081359050610c1581610bef565b92915050565b600080fd5b600080fd5b6000601f19601f8301169050919050565b7f4e487b7100000000000000000000000000000000000000000000000000000000600052604160045260246000fd5b610c6e82610c25565b810181811067ffffffffffffffff82111715610c8d57610c8c610c36565b5b80604052505050565b6000610ca0610bdb565b9050610cac8282610c65565b919050565b600067ffffffffffffffff821115610ccc57610ccb610c36565b5b610cd582610c25565b9050602081019050919050565b82818337600083830152505050565b6000610d04610cff84610cb1565b610c96565b905082815260208101848484011115610d2057610d1f610c20565b5b610d2b848285610ce2565b509392505050565b600082601f830112610d4857610d47610c1b565b5b8135610d58848260208601610cf1565b91505092915050565b60008060408385031215610d7857610d77610be5565b5b6000610d8685828601610c06565b925050602083013567ffffffffffffffff811115610da757610da6610bea565b5b610db385828601610d33565b9150509250929050565b600073ffffffffffffffffffffffffffffffffffffffff82169050919050565b6000610de882610dbd565b9050919050565b610df881610ddd565b82525050565b6000602082019050610e136000830184610def565b92915050565b6000604082019050610e2e6000830185610def565b610e3b6020830184610bb1565b9392505050565b60008115159050919050565b610e5781610e42565b82525050565b6000602082019050610e726000830184610e4e565b92915050565b6000819050919050565b610e8b81610e78565b8114610e9657600080fd5b50565b600081359050610ea881610e82565b92915050565b600060208284031215610ec457610ec3610be5565b5b6000610ed284828501610e99565b91505092915050565b610ee481610ddd565b8114610eef57600080fd5b50565b600081359050610f0181610edb565b92915050565b600060208284031215610f1d57610f1c610be5565b5b6000610f2b84828501610ef2565b91505092915050565b610f3d81610e78565b82525050565b6000606082019050610f586000830186610f34565b610f656020830185610bb1565b610f726040830184610e4e565b949350505050565b6000819050919050565b6000610f9f610f9a610f9584610dbd565b610f7a565b610dbd565b9050919050565b6000610fb182610f84565b9050919050565b6000610fc382610fa6565b9050919050565b610fd381610fb8565b82525050565b6000602082019050610fee6000830184610fca565b92915050565b600082825260208201905092915050565b7f506572696f646f20646520726576656c6163616f206e616f207465726d696e6f60008201527f7500000000000000000000000000000000000000000000000000000000000000602082015250565b6000611061602183610ff4565b915061106c82611005565b604082019050919050565b6000602082019050818103600083015261109081611054565b9050919050565b7f4c65696c616f206a612066696e616c697a61646f000000000000000000000000600082015250565b60006110cd601483610ff4565b91506110d882611097565b602082019050919050565b600060208201905081810360008301526110fc816110c0565b9050919050565b61110c81610e42565b811461111757600080fd5b50565b60008151905061112981611103565b92915050565b60006020828403121561114557611144610be5565b5b60006111538482850161111a565b91505092915050565b7f5472616e73666572656e63696120706172612062656e65666963696172696f2060008201527f66616c686f750000000000000000000000000000000000000000000000000000602082015250565b60006111b8602683610ff4565b91506111c38261115c565b604082019050919050565b600060208201905081810360008301526111e7816111ab565b9050919050565b7f506572696f646f20646520726576656c6163616f206e616f20617469766f0000600082015250565b6000611224601e83610ff4565b915061122f826111ee565b602082019050919050565b6000602082019050818103600083015261125381611217565b9050919050565b7f4c616e63652073746f72616765206c616e6365203d206c616e6365735b6d736760008201527f2e73656e6465725d3b0000000000000000000000000000000000000000000000602082015250565b60006112b6602983610ff4565b91506112c18261125a565b604082019050919050565b600060208201905081810360008301526112e5816112a9565b9050919050565b6000819050919050565b61130761130282610ba7565b6112ec565b82525050565b600081519050919050565b600081905092915050565b60005b83811015611341578082015181840152602081019050611326565b60008484015250505050565b60006113588261130d565b6113628185611318565b9350611372818560208601611323565b80840191505092915050565b600061138a82856112f6565b60208201915061139a828461134d565b91508190509392505050565b7f4c616e636520696e76616c69646f000000000000000000000000000000000000600082015250565b60006113dc600e83610ff4565b91506113e7826113a6565b602082019050919050565b6000602082019050818103600083015261140b816113cf565b9050919050565b7f4c616e6365206a6120726576656c61646f000000000000000000000000000000600082015250565b6000611448601183610ff4565b915061145382611412565b602082019050919050565b600060208201905081810360008301526114778161143b565b9050919050565b60006060820190506114936000830186610def565b6114a06020830185610def565b6114ad6040830184610bb1565b949350505050565b7f5472616e73666572656e63696120646520746f6b656e732066616c686f750000600082015250565b60006114eb601e83610ff4565b91506114f6826114b5565b602082019050919050565b6000602082019050818103600083015261151a816114de565b9050919050565b7f4465766f6c7563616f20646520746f6b656e732066616c686f75000000000000600082015250565b6000611557601a83610ff4565b915061156282611521565b602082019050919050565b600060208201905081810360008301526115868161154a565b9050919050565b7f4c65696c616f2061696e6461206e616f2066696e616c697a61646f0000000000600082015250565b60006115c3601b83610ff4565b91506115ce8261158d565b602082019050919050565b600060208201905081810360008301526115f2816115b6565b9050919050565b7f506572696f646f206465206c616e636573207465726d696e6f75000000000000600082015250565b600061162f601a83610ff4565b915061163a826115f9565b602082019050919050565b6000602082019050818103600083015261165e81611622565b9050919050565b7f4c616e6365206a6120656e766961646f00000000000000000000000000000000600082015250565b600061169b601083610ff4565b91506116a682611665565b602082019050919050565b600060208201905081810360008301526116ca8161168e565b905091905056fea26469706673582212202f54a5721071bf8fffb3aac1466c8d24bebd311d511b283b78f6fcc4a3cd1f7f64736f6c63430008130033",
  "immutableReferences": {},
  "source": "// SPDX-License-Identifier: MIT\r\npragma solidity ^0.8.0;\r\n\r\nimport \"@openzeppelin/contracts/token/ERC20/IERC20.sol\";\r\n\r\ncontract LeilaoAsCegas {\r\n    struct Lance {\r\n        bytes32 valorCego;\r\n        uint valor;\r\n        bool revelado;\r\n    }\r\n\r\n    address public beneficiario;\r\n    uint public fimPeriodoLances;\r\n    uint public fimPeriodoRevelacao;\r\n    IERC20 public token;\r\n    event LogMessage(string message);\r\n\r\n    mapping(address => Lance) public lances;\r\n    address public maiorLicitante;\r\n    uint public maiorLance;\r\n    bool public leilaoFinalizado;\r\n\r\n    constructor(uint _duracaoLances, uint _duracaoRevelacao, address _tokenAddress) {\r\n        beneficiario = msg.sender;\r\n        fimPeriodoLances = block.timestamp + _duracaoLances;\r\n        fimPeriodoRevelacao = fimPeriodoLances + _duracaoRevelacao;\r\n        token = IERC20(_tokenAddress);\r\n    }\r\n\r\n    function enviarLance(bytes32 _valorCego) external {\r\n        require(block.timestamp < fimPeriodoLances, \"Periodo de lances terminou\");\r\n        require(lances[msg.sender].valorCego == 0, \"Lance ja enviado\");\r\n\r\n        lances[msg.sender] = Lance({\r\n            valorCego: _valorCego,\r\n            valor: 0,  // Valor real no  armazenado at a revelao\r\n            revelado: false\r\n        });\r\n    }\r\n\r\n    function revelarLance(uint _valor, string memory _segredo) external {\r\n        require(block.timestamp >= fimPeriodoLances && block.timestamp < fimPeriodoRevelacao, \"Periodo de revelacao nao ativo\");\r\n        Lance storage lance = lances[msg.sender];\r\n        emit LogMessage(\"Lance storage lance = lances[msg.sender];\");\r\n        require(lance.valorCego == keccak256(abi.encodePacked(_valor, _segredo)), \"Lance invalido\");\r\n        require(!lance.revelado, \"Lance ja revelado\");\r\n\r\n        lance.valor = _valor;\r\n        lance.revelado = true;\r\n\r\n        // Transferncia de tokens equivalente ao valor revelado\r\n        require(token.transferFrom(msg.sender, address(this), _valor), \"Transferencia de tokens falhou\");\r\n\r\n        if (_valor > maiorLance) {\r\n            if (maiorLicitante != address(0)) {\r\n                // Devolver tokens ao licitante anterior\r\n                require(token.transfer(maiorLicitante, maiorLance), \"Devolucao de tokens falhou\");\r\n            }\r\n            maiorLicitante = msg.sender;\r\n            maiorLance = _valor;\r\n        } else {\r\n            // Devolver tokens ao licitante que no ganhou\r\n            require(token.transfer(msg.sender, _valor), \"Devolucao de tokens falhou\");\r\n        }\r\n    }\r\n\r\n    function finalizarLeilao() external {\r\n        require(block.timestamp >= fimPeriodoRevelacao, \"Periodo de revelacao nao terminou\");\r\n        require(!leilaoFinalizado, \"Leilao ja finalizado\");\r\n\r\n        leilaoFinalizado = true;\r\n\r\n        // Transferir os tokens para o beneficiario\r\n        require(token.transfer(beneficiario, maiorLance), \"Transferencia para beneficiario falhou\");\r\n    }\r\n\r\n    function mostrarGanhador() external view returns (address, uint) {\r\n        require(leilaoFinalizado, \"Leilao ainda nao finalizado\");\r\n        return (maiorLicitante, maiorLance);\r\n    }\r\n\r\n}\r\n",
  "sourcePath": "C:\\Users\\breno\\Desktop\\Projeto Final\\ProjetoLeilao\\smart-contract\\contracts\\LeilaoAsCegas.sol",
  "compiler": {
    "name": "solc",
    "version": "0.8.19+commit.7dd6d404.Emscripten.clang"
  },
  "schemaVersion": "3.4.16",
  "updatedAt": "2024-09-06T20:24:04.655Z",
  "devdoc": {
    "kind": "dev",
    "methods": {},
    "version": 1
  },
  "userdoc": {
    "kind": "user",
    "methods": {},
    "version": 1
  }
}